:020000040800F2
:10000000285B0020F1020008970900086708000833
:1000100095090008B9070008A90D000800000000B4
:10002000000000000000000000000000390200088D
:10003000BB070008000000008D0200089D0B0008AF
:100040000B0300080B0300080B0300080B03000858
:100050000B0300080B0300080B0300080B03000848
:100060000B0300080B0300080B0300080B03000838
:100070000B0300080B0300080B0300080B03000828
:100080000B0300080B0300080B0300080B03000818
:100090000B0300080B0300080B0300080B03000808
:1000A0000B0300080B0300080B0300080B030008F8
:1000B0000B0300080B0300080B0300080B030008E8
:1000C0000B0300080B0300080B0300080B030008D8
:1000D0000B0300080D0C00080B0300080B030008BD
:1000E0000B0300080B0300080B0300080B030008B8
:1000F0000B0300080B0300080B0300080B030008A8
:100100000B0300080B0300080B0300080B03000897
:100110000B0300080B0300080B0300080B03000887
:100120000B0300080B0300080B0300080B03000877
:100130000B0300080B0300080B0300080B03000867
:100140000B0300080B0300080B0300080B03000857
:100150000B0300080B0300080B0300080B03000847
:100160000B0300080B0300080B0300080B03000837
:100170000B0300080B0300080B0300080B03000827
:100180000B0300080B03000800F002F800F044F82D
:100190000AA090E8000C82448344AAF10107DA45E2
:1001A00001D100F039F8AFF2090EBAE80F0013F0F0
:1001B000010F18BFFB1A43F001031847642D00001C
:1001C000842D0000103A24BF78C878C1FAD85207AD
:1001D00024BF30C830C144BF04680C6070470000C1
:1001E0000023002400250026103A28BF78C1FBD840
:1001F000520728BF30C148BF0B607047642900F028
:100200000381732900F01082002070471FB502F0AF
:1002100081FE1FBD10B510BD00F09BFA1146FFF71F
:10022000F5FF00F049FE00F0B9FA03B4FFF7F2FF62
:1002300003BC00F0BAFD00002A4B19680868B0E85A
:10024000F04F80F30988BFF36F8F4FF0000080F309
:10025000118870470000000006480068006880F3BD
:10026000088862B661B6BFF34F8FBFF36F8F00DFB0
:1002700000BF00BF08ED00E0DFF80C00016841F4AA
:1002800070010160704700BF88ED00E0EFF3098066
:10029000BFF36F8F134B1A681EF0100F08BF20EDCD
:1002A000108A20E9F04F106008B44FF0500080F33E
:1002B0001188BFF34F8FBFF36F8F01F0FBFF4FF03B
:1002C000000080F3118808BC19680868B0E8F04F96
:1002D0001EF0100F08BFB0EC108A80F30988BFF33E
:1002E0006F8F704740000020EFF3058070470000DB
:1002F0000948804709480047FEE7FEE7FEE7FEE7BA
:10030000FEE7FEE7FEE7FEE7FEE7FEE704480549F5
:10031000054A064B70470000B10B00088901000830
:1003200028550020285B002028570020285700204F
:10033000704700000FB4044910B503AA029800F0FA
:1003400077F910BC5DF814FB2C0000202DE9F0417A
:100350000E460446002020622046E168884730B3FC
:10036000252805D0D4E901219047206A401CF2E7F6
:10037000E168204600278847050018D0A5F1410014
:10038000192802D820354FF4006732462946204606
:100390002760FFF733FF40B1012804D0F61D26F097
:1003A00007060836D8E7361DD6E72846DAE7206A7A
:1003B000BDE8F08170B50C460546012A05D02878C5
:1003C000800600D5EA69002302E0012305E05B1CFA
:1003D000934202D2E05C0028F9D1A869E618C01A5D
:1003E000A861286A184428622846AFF3008004E018
:1003F000D5E9012114F8010B9047B442F8D32846FF
:10040000AFF3008070BD00002DE9F04106460024E6
:1004100010687529314616A510D0AFF3008000286A
:1004200002DA404213A507E031688A0701D512A518
:1004300002E0490704D511A5012401E0AFF30080D3
:1004400000210A2206F1240709E0B0FBF2FCB0FB10
:10045000F2F302FB1C00303078541846491C002887
:10046000F3D123462A463046BDE8F04100F059B8A2
:10047000000000002D0000002B0000002000000004
:10048000032A40F2308010F0030C00F0158011F8C0
:10049000013BBCF1020F624498BF11F801CB00F898
:1004A000013B38BF11F8013BA2F1040298BF00F8EC
:1004B00001CB38BF00F8013B11F0030300F0CA8004
:1004C000083AC0F0088051F8043B083A51F804CBD0
:1004D000A0E80810F5E7121D5CBF51F8043B40F896
:1004E000043BAFF30080D20724BF11F8013B11F8A1
:1004F00001CB48BF11F8012B24BF00F8013B00F8E5
:1005000001CB48BF00F8012B704702F0FF0343EA1C
:10051000032242EA024200F0D1B8704770477047A8
:1005200070472DE9F0470D4699469246044600F182
:1005300024080168880604D5E06921F010012160D3
:1005400000E00120A84201DD471B00E00027A1696F
:100550007A1902EB0900081AA0612078C00602D4BB
:100560002046AFF30080002608E0D4E901211AF804
:1005700006009047206A401C761C20624E45F4DB42
:100580002078C0060AD52046AFF3008006E0D4E903
:10059000012130209047206A401C2062381EA7F1BC
:1005A0000107F4DC07E0D4E9012118F805009047C1
:1005B000206A401C2062281EA5F10105F3DC2046BC
:1005C000AFF300802078000602D50220BDE8F08756
:1005D0000120FBE701694A1C02610878704700B5F9
:1005E0008FB0CDE901310021059105497944CDE96C
:1005F000031011466846FFF7A9FE0FB000BD0000CA
:10060000E5FFFFFF10B5436913B1AFF3008001E0D0
:10061000FFF7D0FE012010BD127800F124010A700E
:1006200000224A700122EDE711684FF0FF32E9E73E
:10063000074B70B50D467B44FFF7D1FF04462846B3
:1006400000F05CF810B14FF0FF3070BD204670BD77
:100650001708000010B5203AC0F00B80B1E8185020
:10066000203AA0E81850B1E81850A0E81850BFF49C
:10067000F5AF5FEA027C24BFB1E81850A0E818503B
:1006800044BF18C918C0BDE810405FEA827C24BF8F
:1006900051F8043B40F8043B08BF7047D20728BF1D
:1006A00031F8023B48BF11F8012B28BF20F8023B6C
:1006B00048BF00F8012B70474FF000020429C0F03A
:1006C000128010F0030C00F01F80CCF1040CBCF180
:1006D000020F18BF00F8012BA8BF20F8022BA1EBD6
:1006E0000C0100F011B85FEAC17C24BF00F8012BB7
:1006F00000F8012B48BF00F8012B7047007B00F089
:10070000800070474FF0000200B5134694469646AD
:10071000203922BFA0E80C50A0E80C50B1F1200114
:10072000BFF4F7AF090728BFA0E80C5048BF0CC0C2
:100730005DF804EB890028BF40F8042B08BF704720
:1007400048BF20F8022B11F0804F18BF00F8012B92
:100750007047754600F02CF8AE46050069465346D2
:1007600020F00700854618B020B5FFF7CFFDBDE8A3
:1007700020404FF000064FF000074FF000084FF008
:10078000000B21F00701AC46ACE8C009ACE8C00999
:10079000ACE8C009ACE8C0098D46704710B5044606
:1007A000AFF300802046BDE81040FFF73EBD0000DB
:1007B00000487047C8540020FEE77047F0B500229B
:1007C00001274FF0030C0B6807FA02F52B40AB42F0
:1007D0002CD1066853000CFA03F4A64306600E7988
:1007E000D0F800E09E4046EA0E0606600E79012E23
:1007F00001D0022E12D18668A64386604E79D0F8C9
:1008000008E09E4046EA0E0686604668AE434660B3
:1008100045688E799640B6B235434560C568A543B4
:10082000C560CC799C40C3681C43C460521C102A2C
:10083000C9D3F0BD4B07DB0E9A40C90810B500EBD9
:100840008100016A0F249C40A1430162016A1143A7
:10085000016210BD0246002012690A4200D0012048
:10086000704701837047FEE71CB50121112000F09D
:10087000CFF81820009000208DF8040003208DF898
:10088000050001248DF8074069460648FFF796FFEA
:1008900002208DF80700009469460348FFF78EFF99
:1008A0001CBD000000100240000002402DE9F04194
:1008B0000126254C254F264D012818D0207878B1E7
:1008C00010212846FFF7C6FF98B108212846FFF7F8
:1008D000C1FF70B101213846FFF7BCFF012808D0E5
:1008E00010212846FFF7B6FF01281FD02AE0267006
:1008F000E6E7142000F076FA002020701021284648
:10090000FFF7A8FF58B108212846FFF7A3FF48B119
:1009100001213846FFF79EFF012805D012E0012093
:10092000BDE8F0810220FBE70320F9E70821284613
:10093000FFF790FF012805D101213846FFF78AFF14
:1009400000B926700020EBE72400002000000240E0
:10095000001002407CB50121202000F059F8012050
:100960008DF8040000228DF8062003218DF8051073
:10097000074D4FF4C0648DF807000094694628467F
:10098000FFF71CFF21462846FFF76BFF7CBD0000E8
:1009900000140240FEE7704730B50F23C27801789B
:1009A0000125FAB1144A126801F1E02102F4E06273
:1009B000C2F5E062C2F30722C2F10404D3404278D8
:1009C000A24084781C401443220181F8002400785E
:1009D00000F01F018D404009800000F1E020C0F8C8
:1009E000005130BD01F01F0085404809800000F132
:1009F000E020C0F8805130BD0CED00E00249084312
:100A000002490860704700000000FA050CED00E0A4
:100A1000044A0029116801D0014300E081431160BC
:100A20007047000030380240044A0029116801D0A4
:100A3000014300E0814311607047000044380240E8
:100A400070B5204B1968204C11F00C0104D06610D1
:100A5000042903D0082903D004601BE0066019E0D4
:100A6000184A121F1168C1F38055116801F03F0147
:100A700015B1B6FBF1F101E0B4FBF1F114681268B5
:100A8000C4F388146143C2F30142521C5200B1FB0B
:100A9000F2F1016019680F2202EA11110B4A545C4D
:100AA0000168E14041601C68072505EA9424145D53
:100AB00021FA04F484601B6805EA5333D25CD14008
:100AC000C16070BD083802400024F40030000020EE
:100AD0000CB50022274900920192086840F480304A
:100AE00008604FF4A043086800F4003001900098BB
:100AF000401C0090019810B900989842F3D1086802
:100B0000800334D5012001901A484030026842F039
:100B1000805202601848026842F440420260154860
:100B2000083002680260026842F400420260026813
:100B300042F4A0520260031F104A1A600A6842F091
:100B400080720A600A689201FCD50D4940F2057274
:100B50000A60016821F003010160016841F00201AF
:100B600001600168C1F381010229FAD10CBD019233
:100B70000CBD0000003802400070004008544007DF
:100B8000003C02404FF0E0210428086903D020F027
:100B900004000861704740F00400FAE710B501F066
:100BA0005DFF012803D0BDE8104001F04BBC10BD33
:100BB000124810B5016841F47001016010480168E5
:100BC00041F0010101600E4A002108321160026803
:100BD0000C4B1A400260031D0B4A1A60026822F493
:100BE0008022026006480C300160FFF771FF034964
:100BF0004FF000608039086010BD000088ED00E013
:100C000000380240FFFFF6FE1030002470B5154C8E
:100C100040F22551204600F035F800280ED020463D
:100C200000F0BEF8104AC1B21088030406D4440490
:100C30004FF0000306D50A2901D0138070BD40F49F
:100C400000400DE00D2909D0C0F30D04074D401CF4
:100C500080B229551080C728EFD870BD40F480407D
:100C6000108070BD001001402A000020B400002058
:100C70000029818902D041F4005101E021F40051A2
:100C80008181704770B501F01F0501260024C1F372
:100C9000421306FA05F2012B0FD0022B0FD0838AE4
:100CA0004FEA11210088134206FA01F600EA060015
:100CB00001D000B10124204670BD8389F0E7038A8A
:100CC000EEE710B5C1F3421301F01F040121A1406A
:100CD000012B07D0022B07D01430002A026805D060
:100CE0000A4304E00C30F8E71030F6E78A4302606C
:100CF00010BD00007FB50446008A0D46C98820F467
:100D0000405001432182A08941F20C618843A988A7
:100D10002A8911436A8902431143A181A08A20F4E0
:100D20004071A8890843A0826846FFF789FE1A48E7
:100D3000844202D01948844201D1039800E002980D
:100D4000A189090400EBC00101EB0010296801D55D
:100D5000490000E08900B0FBF1F06422B0FBF2F141
:100D600009010B096FF018056B4300EB8300A389A1
:100D70001D044FF0320306D503EBC000B0FBF2F0C8
:100D800000F0070005E003EB0010B0FBF2F000F00C
:100D90000F00084320817FBD001001400014014076
:100DA0008088C0F308007047FEE7704710B504461E
:100DB0000420FFF7E7FE0A484FF47A71047014FB31
:100DC00001F1012242804FF0E020026942F002026C
:100DD00002614161016941F00101016110BD000042
:100DE0002600002070B5044601F038FE01280CD022
:100DF000094D6888844203D3B4FBF0F000F0F0FFA3
:100E00006888B4FBF0F100FB11444FF47A70604342
:100E1000BDE8704000F002B82600002070B54FF029
:100E2000E02500216C69094AAB6912785043AA6930
:100E30009A42FCD002D2A3EB020302E0A4EB02062A
:100E40003344194413468142F1D370BD260000207B
:100E500003490A885206FCD5C2B28A807047000056
:100E6000001001400B4C0020FFF720FD012802D0AC
:100E700002280BD104E0606801F0ACF906A003E0A1
:100E8000606801F0E9F808A0FFF754FA0A2000F0C2
:100E9000A7FFE8E70000002053757370656E6420BB
:100EA0007461736B31000000526573756D65207459
:100EB00061736B31000000001CB54FF44070FFF708
:100EC0009DFDA820FFF772FF4FF4E13000F0A8FD70
:100ED000FFF740FDFFF7C8FC06490120CDE90001FE
:100EE0000023782204A1074801F08CFD01F028F9C5
:100EF00000201CBD0000002073746172745F746177
:100F0000736B0000191900082DE9F041184E0F46C7
:100F10000446F5683068001D00F0D8FD38B9306827
:100F200090F82C1001208840316981433161601CA8
:100F300007D137B13168BDE8F0410E48091D00F016
:100F4000FDBD30682C44AC424460316805D2B06BC2
:100F5000BDE8F041091D00F0D9BD706B091D00F01E
:100F6000D5FDB06A844200D2B462BDE8F0810000D1
:100F7000400000208C0400202DE9F041054600F0DF
:100F8000E9FD2D4EB068401CB06030682B4F10B1A9
:100F9000706930B32BE03560B068012827D1002498
:100FA00004EB840007EB800000F0A2FD641C202C01
:100FB000F6D3234800F09CFD2148143000F098FD42
:100FC0001F48283000F094FD1D483C3000F090FD93
:100FD0001B48503000F08CFD194870631430B0632A
:100FE00005E03068E96AC06A884200D83560706AF6
:100FF0000121401C70626864E86A326981401143D3
:10100000316100EB800007EB8000291D00F096FDA8
:1010100000F0DCFD706900280CD03068E96AC06A15
:10102000884207D207494FF080500860BFF34F8FC6
:10103000BFF36F8FBDE8F08140000020BC010020AD
:101040003C04002004ED00E010B500F083FD0E4CE0
:101050002068A0B90D4800F04BFD0C48143000F09A
:1010600047FD0A48E060143020610022102105206D
:1010700001F0FEF9206010B105A100F07DFEBDE891
:10108000104000F0A3BD00007C000020A004002060
:10109000546D72510000000070B5124E124D1CE0EC
:1010A00001F000F9306820B1002401F005FEA4B978
:1010B00001E00124F9E700F04DFDF068C468201D4F
:1010C00000F004FDA868401EA8606868401E6860C3
:1010D00000F07CFD204600F052F868680028DFD15F
:1010E00070BD0000780400204000002030B4026C85
:1010F0000B46002A0BD0C1681144C1604468A1426C
:1011000001D30168C16030BC1846FFF7B9B930BCE3
:1011100070472DE9F041856B174604460026026CA6
:1011200082B1C7B1E068FFF7ABF9E168206C091A3A
:10113000E1602268914202D26168081AE060022FE1
:1011400016D017E02068A8B9606801F00FFD0646C8
:10115000002060600EE0A068FFF792F9216CA068A3
:101160000844A0606168884204D32068A06001E060
:1011700005B16D1E6D1CA5633046BDE8F08110B54C
:101180000446006B00F054FD2046BDE8104000F01E
:101190004FBD000010484FF4A041420706D0C01DCB
:1011A0000D4920F00700411AC1F5A0410B4A002368
:1011B0000144C2E900030839103A21F00701116027
:1011C0004B600B600B1AC0E9001393604FF00040B6
:1011D0005360D06070470000C8040020AC000020BD
:1011E000074E4FF08054074DFFF756FF3068012837
:1011F000FAD92C60BFF34F8FBFF36F8FF4E7000075
:10120000BC01002004ED00E02DE9F047DDE9098490
:101210000E461746824691009946089DA522206BEE
:10122000FFF773F96FF00301206B01EB87010844AE
:1012300020F00707780705D040F22B3219A11EA035
:10124000FFF778F800202218315C82F83410315C06
:1012500011B1401C1028F6D3002684F84360202DDD
:1012600000D31F25E562C4E91356201D00F04BFC96
:1012700004F1180000F047FC2461C5F1200064620D
:10128000A061666584F858604A465146384600F0C9
:101290002DFB2060B8F1000F01D0C8F80040BDE878
:1012A000F08700002E2E5C4672656552544F535CE9
:1012B0007461736B732E63004572726F723A25739B
:1012C0002C25640D0A00000030B5114900E01146DC
:1012D0000A688242FBD34B685C18844203D14068A1
:1012E00018444860084643681C18944209D1084CC9
:1012F000103C2468A24209D052681A4442600A682D
:1013000012680260814200D0086030BD0460F9E7D5
:10131000AC00002070B5002441600B4D006191428B
:1013200006D8D11A8269914206D2011D286907E0C8
:101330009A4203D2994201D3012403E0011DE868D7
:1013400000F0E4FB204670BD7C00002010B5044690
:1013500000F000FCA06B20B1002400F037FC204618
:1013600010BD0124F9E700002DE9F34100980F4674
:101370000026846C2CB940F6CE1216A11AA0FEF7F6
:10138000D9FFA06BE16B884205D340F6CF1211A1C3
:1013900015A0FEF7CFFFA06BE16B88420CD294F949
:1013A00045503A4669462046FFF7B3FE0646681C9C
:1013B00005D06D1C84F845503046BDE8FC81606A5C
:1013C0000028F9D004F1240001F02AFC0028F3D011
:1013D0000126F1E72E2E5C4672656552544F535C30
:1013E00071756575652E63004572726F723A25736B
:1013F0002C25640D0A000000F8B5054614480E4679
:10140000C068C068C468201D00F060FBE069012866
:1014100017D1A0692B46411932462046FFF77AFFC3
:1014200078B100200346014600902A46204601F08C
:1014300029FD30B907494FF4027201F11800FEF797
:1014400079FF616A01B02046BDE8F040084700001E
:101450007C000020E82D000870B586B02F4E53E0C8
:101460000198002806DADDE90301029A9047019805
:10147000002849DB039C606910B1201D00F026FBA9
:1014800005A800F0A7F8054601980A283CD2DFE835
:1014900000F00505053B273805053B270298A169A3
:1014A000034601442A462046FFF734FF00282BD08C
:1014B000616A20468847E069012825D10020009014
:1014C0000298A169002342181946204601F0DAFC6F
:1014D000D0B940F2213212A117A0FEF72BFF13E082
:1014E0000298A06128B94FF44E720DA112A0FEF728
:1014F00021FFA0692B4641191A462046FFF70AFF33
:1015000002E0204600F094FB00231A4601A930684F
:1015100000F0EAFF0028A3D106B070BD7C000020D7
:101520002E2E5C4672656552544F535C74696D652E
:1015300072732E63000000004572726F723A257359
:101540002C25640D0A000000F8B50D46064600F093
:10155000A9FE684600F03EF80446009810B101F07C
:10156000ABFBF8BD1148ADB101690968D9B10025DF
:10157000311B2A46006800F011FC01F09DFB002899
:10158000EFD10B494FF080500860BFF34F8FBFF38E
:101590006F8FF8BDA642EBD801F08EFB2146304696
:1015A000FFF72AFFF8BD0125E2E700007C000020DC
:1015B00004ED00E00648416B096829B1416BC96838
:1015C000C9684968816270474FF0FF31FAE700004F
:1015D0004000002070B5054601F04EFA064E044664
:1015E000B068844203D200F009F8012000E0002036
:1015F00028602046B46070BD7C000020F8B5184E0D
:1016000026E0C068C4680568201D00F05FFA616AC2
:1016100020468847E06901281AD1A0692844A842D9
:1016200006D924616060211DF06800F06FFA0FE0B8
:1016300000200346014600902A46204601F022FC85
:1016400030B9084940F2923201F11800FEF772FEFB
:10165000F06801680029D4D13169C6E90310F8BDEA
:101660007C000020E82D000808484068401C05D098
:1016700040F20F1206A111A0FEF75CFE502080F38D
:101680001188BFF34F8FBFF36F8FFEE790000020EC
:101690002E2E5C4672656552544F535C706F7274A7
:1016A00061626C655C525644535C41524D5F434DE0
:1016B00034465C706F72742E630000004572726F66
:1016C000723A25732C25640D0A00000070B50025C0
:1016D000040005D140F2816207A10CA0FEF72AFEAA
:1016E0000E496069884205D1A06A2839884201D034
:1016F00000B90125284670BD2E2E5C4672656552E4
:10170000544F535C7461736B732E63004572726F38
:10171000723A25732C25640D0A0000008C04002009
:10172000084CE068016839B1002139B10020FFF7A9
:101730000BFFFFF791FEF4E70121F6E7C0680068B0
:10174000F5E700007C0000202DE9F041044600F0A0
:1017500001FA94F9455004F1240610E0A06C20B180
:1017600000212046FFF700FE04E0606A48B13046E1
:1017700001F056FA08B100F0CFFB6D1E6DB2002DDE
:10178000ECDC4FF0FF3684F8456000F01FFA00F003
:10179000E1F994F9445004F1100709E0206948B1D7
:1017A000384601F03DFA08B100F0B6FB6D1E6DB28F
:1017B000002DF3DC84F84460BDE8F04100F006BA87
:1017C0002DE9F0410546002600F06CFD324F3868E7
:1017D00008B9FFF7DFFCF86805424FD1002D4DD066
:1017E000083568070BD005F00700C0F10800054474
:1017F000680704D0BF2229A132A0FEF79BFD002D6F
:101800003CD07868854239D82349103108460468AD
:1018100001E0214604466068A84202D22068002800
:10182000F7D13868B846844228D00E68206808602E
:1018300060680836401B10280ED96719780704D055
:10184000EC2216A11FA0FEF775FD6068401B7860B2
:1018500038466560FFF738FD6168D8F804004246F5
:10186000401AC8F80400D8F80830984200D29060B6
:10187000D8F80C0001430020C4E9000101F01CFA73
:10188000700705D04FF4967204A10EA0FEF752FD2A
:101890003046BDE8F08100009C0000202E2E5C4602
:1018A00072656552544F535C706F727461626C65FF
:1018B0005C4D656D4D616E675C686561705F342E6F
:1018C000630000004572726F723A25732C25640D17
:1018D0000A0000000449086818B10868026D521C2B
:1018E00002650868704700004000002010B5031F23
:1018F0004FF080741C601B1F21F001011960191F3B
:10190000044B0B6014390A60091F6FF0020244385F
:101910000A6010BD691600081CB512490220CDE905
:1019200000010023782210A1124801F06BF80D4944
:101930000320091DCDE90001002378220EA11148E2
:1019400001F060F8074904200831CDE900010023C7
:1019500078220DA10F4801F055F8BDE81C40002089
:1019600000F074BA040000207461736B315F4C4561
:1019700044000000991900087461736B325F4C4594
:1019800044000000DD1900086B65795F7461736BBA
:1019900000000000650E000800240B4D26460127BC
:1019A0004FF44878641CE4B2C5F8A462C82000F083
:1019B00017FAC5F8A472404600F012FA214603A0B7
:1019C000FEF7B8FCEEE70000008042427461736BE2
:1019D000315F6E756D3A25640D0A000000240B4DD1
:1019E00027464FF4FA764FF00108641CE4B2C5F8BC
:1019F000A872304600F0F4F9C5F8A882304600F02D
:101A0000EFF9214602A0FEF795FCEEE70080424286
:101A10007461736B325F6E756D3A25640D0A000058
:101A2000F0B50646012187B00846FEF7F1FF012117
:101A30001020FEF7F9FF234D072209212846FEF763
:101A4000F9FE07220A212846FEF7F4FE02218DF84E
:101A500014108DF815104FF4C060002404908DF818
:101A6000164001278DF8177004A92846FEF7A6FE38
:101A7000ADF80440ADF80640ADF80840ADF80C40B4
:101A80000C20114CADF80A00009669462046FFF77D
:101A900031F901212046FFF7EBF8012240F22551F0
:101AA0002046FFF70EF925208DF8180003208DF849
:101AB00019008DF81A008DF81B7006A8FEF76CFF50
:101AC00007B0F0BD0000024000100140D0E9013233
:101AD00001699A60D0E901235A604A68824201D1C3
:101AE00082684A60002202610868401E08607047F0
:101AF00000F108014FF0FF32C0E90112C16001613D
:101B000000210160704700210161704730B50C6809
:101B1000621C02D000F1080202E0026904E01A46E9
:101B200053681D68A542FAD953684B6099608A6072
:101B3000516008610168491C016030BD42684A601B
:101B400093688B6093685960916008610168491CD3
:101B500001607047502080F31188BFF34F8FBFF3AF
:101B60006F8F09494868401C486001280AD107481E
:101B7000006810F0FF0F05D040F2B91204A10FA0C9
:101B8000FEF7D8BB704700009000002004ED00E095
:101B90002E2E5C4672656552544F535C706F7274A2
:101BA00061626C655C525644535C41524D5F434DDB
:101BB00034465C706F72742E630000004572726F61
:101BC000723A25732C25640D0A00000010B5084CEC
:101BD000606828B94FF4E07206A111A0FEF7AAFBD5
:101BE0006068401E606001D180F3118810BD000064
:101BF000900000202E2E5C4672656552544F535C57
:101C0000706F727461626C655C525644535C4152F1
:101C10004D5F434D34465C706F72742E630000005C
:101C20004572726F723A25732C25640D0A0000000C
:101C300070B500282AD0164DA0F108046068E96844
:101C4000084205D14FF4A07212A11CA0FEF772FB4E
:101C5000206828B140F241120EA118A0FEF76AFBDD
:101C60006068E968084211D02268002A0ED18843D2
:101C7000606000F017FB606869680844686020468F
:101C8000FFF722FBBDE8704001F016B870BD000000
:101C90009C0000202E2E5C4672656552544F535CAA
:101CA000706F727461626C655C4D656D4D616E67DD
:101CB0005C686561705F342E630000004572726F6E
:101CC000723A25732C25640D0A00000006484FF473
:101CD0007A710068B0FBF1F14FF0E020491E4161DC
:101CE00007210161704700001000002010B5FEF7C9
:101CF000FBFA104C10280CD300F1E02090F8F00310
:101D00002178884205D24FF440720BA115A0FEF74E
:101D100011FB18480068A16800F4E060884207D908
:101D2000BDE810404FF4447203A10EA0FEF702BBC1
:101D300010BD0000900000202E2E5C46726565529A
:101D4000544F535C706F727461626C655C525644A0
:101D5000535C41524D5F434D34465C706F72742E3C
:101D6000630000004572726F723A25732C25640D72
:101D70000A0000000CED00E010B5074B002253F8FC
:101D800032401CB1521C082AF9D310BD43F832105E
:101D900003EBC201486010BD7C01002070B5154600
:101DA0000E460446FFF7D6FE94F944100020491C65
:101DB00001D184F8440094F94510491C01D184F8FC
:101DC0004500FFF703FFA06B28B92A46314604F10E
:101DD000240000F0D1F82046BDE87040FFF7B4BC05
:101DE00010B5040012D00E49096B29B140F2CF4260
:101DF0000CA111A0FEF79EFA00F054FA0021204633
:101E0000FFF782F800F058FF002807D10E494FF085
:101E100080500860BFF34F8FBFF36F8F10BD00007D
:101E2000400000202E2E5C4672656552544F535C74
:101E30007461736B732E63004572726F723A25730F
:101E40002C25640D0A00000004ED00E070B5044686
:101E5000FFF780FE234D04B92C68201DFFF736FEE6
:101E600058B9E06A204A00EB800152F8211021B9EC
:101E700001218140286988432861A06A18B104F1D2
:101E80001800FFF723FE686A401C686228688442D5
:101E900007D1211D1548FFF751FE6868401C686096
:101EA00007E0A868401EA8602046FFF768F9FFF722
:101EB00081FBFFF78BFE6869002812D028688442F6
:101EC0000FD1286B28B140F2654209A10DA0FEF7A1
:101ED00031FA10494FF080500860BFF34F8FBFF3C5
:101EE0006F8F70BD40000020BC01002078040020EE
:101EF0002E2E5C4672656552544F535C7461736B51
:101F0000732E63004572726F723A25732C25640D2F
:101F10000A00000004ED00E001490120C86170479B
:101F20004000002070B50D46040005D140F6063291
:101F300007A10CA0FEF7FEF90E48016820461831F3
:101F4000FFF7E4FD2846BDE870400121FEF7DCBF45
:101F50002E2E5C4672656552544F535C7461736BF0
:101F6000732E63004572726F723A25732C25640DCF
:101F70000A0000004000002070B514460E4605001F
:101F800005D140F6313209A10DA0FEF7D3F9104872
:101F9000016828461831FFF7D1FD0CB14FF0FF362C
:101FA00021463046BDE87040FEF7AEBF2E2E5C469F
:101FB00072656552544F535C7461736B732E63008A
:101FC0004572726F723A25732C25640D0A00000069
:101FD0004000002070B5040039D01D4DE06A29682A
:101FE000C96A884233D2A069002804DB2868C06A25
:101FF000C0F12000A061E06A164E00EB800061692C
:1020000006EB800081421FD1201DFFF75FFD0121FB
:1020100050B9E06A00EB800256F8222022B92A6902
:1020200001FA00F082432A612868C06AE0622A69E6
:1020300081401143296100EB800006EB8000211DE7
:10204000BDE87040FFF77ABD2868C06AE06270BDE5
:1020500040000020BC01002070B504002BD01A4DB8
:10206000286884422FD0FFF775FD2046FFF72EFB2E
:10207000E8B1201DFFF72AFDE06A01212A698140AD
:1020800011432961114900EB800001EB8000211D03
:10209000FFF754FDE06A2968C96A884207D30C49F2
:1020A0004FF080500860BFF34F8FBFF36F8FBDE8D4
:1020B0007040FFF78BBDBDE8704040F2AB6205A1F8
:1020C00009A0FEF737B970BD40000020BC01002018
:1020D00004ED00E02E2E5C4672656552544F535C51
:1020E0007461736B732E63004572726F723A25735D
:1020F0002C25640D0A00000010B5040005D140F63F
:10210000C13205A109A0FEF715F90C48016A21604A
:10211000C068606010BD00002E2E5C46726565527E
:10212000544F535C7461736B732E63004572726F0E
:10213000723A25732C25640D0A000000400000202F
:102140001CB517480024CDE900402346822215A182
:10215000164800F057FC012803D100F059FE012871
:102160000AD0401C1BD102B040F28472BDE810407E
:102170000FA114A0FEF7DEB8502080F31188BFF342
:102180004F8FBFF36F8F06484FF0FF312C388162BD
:1021900001214161C460BDE81C4000F0C9B81CBD0C
:1021A0006C00002049444C4500000000E11100088B
:1021B0002E2E5C4672656552544F535C7461736B8E
:1021C000732E63004572726F723A25732C25640D6D
:1021D0000A00000070B50446FFF7BCFC244D04B9AA
:1021E0002C68201DFFF772FC58B9E06A214A00EB09
:1021F000800152F8211021B90121814028698843CA
:102200002861A06A18B104F11800FFF75FFC211DD6
:102210001948FFF793FCFFF7D9FC686928B1FFF76D
:1022200099FCFFF7C7F9FFF7D1FC2868844211D168
:10223000686980B1286B28B140F257620FA114A0E1
:10224000FEF778F816494FF080500860BFF34F8FC3
:10225000BFF36F8F70BD0848A9680068884202D13B
:102260000020286070BDBDE8704000F023B8000079
:1022700040000020BC0100208C0400202E2E5C4673
:1022800072656552544F535C7461736B732E6300B7
:102290004572726F723A25732C25640D0A00000096
:1022A00004ED00E00248016B491C01637047000027
:1022B0004000002070B5134D286B10B10120E8617B
:1022C00070BD0020E86128690F4EB0FA80F0C0F1BF
:1022D0001F0000EB800456F8240028B940F6F622CF
:1022E0000AA10FA0FEF726F806EB840000F1080211
:1022F000416849684160914201D149684160C868BC
:10230000286070BD40000020BC0100202E2E5C46DD
:1023100072656552544F535C7461736B732E630026
:102320004572726F723A25732C25640D0A00000005
:102330001CB5304C20683049884205D140F2591212
:102340002EA139A0FDF7F6FF20682B49491E8842CF
:1023500005D14FF4AD7229A133A0FDF7EBFF364C48
:1023600020780190FF20207020788DF800009DF8E3
:1023700000009DF8001000F0F000884205D040F207
:1023800073121EA128A0FDF7D5FF9DF800002B4A6F
:1023900000F0500010700720906007E09068401E29
:1023A00090609DF8000040008DF800009DF800004E
:1023B0000006F3D4107A000200F4E0609060019807
:1023C00020700C482030016841F470010160016800
:1023D00041F070410160FFF779FC00205060FDF78B
:1023E0004BFF1748016841F040410160FDF734FFA1
:1023F00000201CBD00ED00E071C20F412E2E5C4696
:1024000072656552544F535C706F727461626C6593
:102410005C525644535C41524D5F434D34465C70B0
:102420006F72742E630000004572726F723A2573EA
:102430002C25640D0A00000000E400E0900000205C
:1024400034EF00E010B5502080F31188BFF34F8FB8
:10245000BFF36F8F00F016FB18B104494FF08050A6
:102460000860002080F3118810BD000004ED00E03A
:102470002DE9F04117460E46050005D14FF4C47210
:1024800010A115A0FDF756FFBEB105FB06F05430B4
:10249000FFF796F904000ED004F154007EB12060DD
:1024A000C4E90F562046012100F0E0F884F850708E
:1024B00000212046A164BDE8F0810020E7E7246008
:1024C000EEE700002E2E5C4672656552544F535C59
:1024D00071756575652E63004572726F723A25736A
:1024E0002C25640D0A0000002DE9FF4F83B09B46A8
:1024F0008A4604004FF0000605D140F2DC4251A1AB
:1025000055A0FDF717FFBAF1000F07D1206C28B1D5
:1025100040F2DD424BA150A0FDF70CFF00F09EFA07
:1025200038B9059828B14FF49C6246A14AA0FDF73E
:1025300001FF4FF000094FF08057DFF82C81FFF7C3
:1025400009FBA56B45B351462046E668FEF7CEFD74
:10255000BBF1000F13D0E660606A50B104F12400B3
:1025600000F05EFB28B1C8F80070BFF34F8FBFF3D7
:102570006F8FFFF72BFB012007B0BDE8F08F6D1EBA
:10258000A563206810B9FFF7A5F9606020690028ED
:10259000EFD004F11000E3E7059808B11EB106E0A2
:1025A000FFF714FB27E06846FFF7A6FD0126FFF7BB
:1025B0000DFBFFF777FEFFF7CDFA94F94400401CBE
:1025C00001D184F8449094F94500401C01D184F86D
:1025D0004590FFF7FBFA05A9684600F0CFF90028FF
:1025E00020460AD0FFF7B0F800F066FB2046FEF761
:1025F000ADFE0028A3D00020BEE7FEF7A7FED8B1AD
:10260000206830B9FFF7A6FA6068FFF7E3FCFFF730
:10261000DDFA04F124000599FFF784FC2046FFF75A
:1026200093F800F049FB002889D1C8F80070BFF387
:102630004F8FBFF36F8F82E72046FFF785F800F0DA
:102640003BFB7CE72E2E5C4672656552544F535C13
:1026500071756575652E63004572726F723A2573E8
:102660002C25640D0A00000004ED00E070B50D4655
:10267000040005D140F21B121CA121A0FDF75AFE57
:10268000FFF768FAD4E90F20216802FB00116160AE
:102690000021A1632168A1600A46D4E90F01401E10
:1026A00000FB0121E16021464FF0FF3001F8440FAB
:1026B000487004F110004DB1FFF71AFA04F124003C
:1026C000FFF716FAFFF782FA012070BD2169002991
:1026D000F8D000F0A5FA0028F4D00D494FF0805052
:1026E0000860BFF34F8FBFF36F8FEBE72E2E5C4672
:1026F00072656552544F535C71756575652E630044
:102700004572726F723A25732C25640D0A00000021
:1027100004ED00E02DE9FF4F83B099468B4604009D
:102720004FF0000605D140F2D92252A156A0FDF784
:1027300001FEBBF1000F07D1206C28B140F2DA2274
:102740004CA151A0FDF7F6FDB9F1020F08D1E06BE5
:10275000012805D040F2DB2246A14BA0FDF7EAFD9F
:1027600000F07CF938B9059828B140F2DE2241A189
:1027700045A0FDF7DFFD4FF0000A4FF08057DFF86E
:102780001881FFF7E7F9A06BE16B884206D3B9F136
:10279000020F03D0059800B316B325E04A46594608
:1027A0002046FEF7B6FCA16C21B149462046FEF753
:1027B000DBFD05E0616A19B104F1240000F030FA94
:1027C00028B1C8F80070BFF34F8FBFF36F8FFFF7CA
:1027D000FDF9012007B0BDE8F08FFFF7F7F921E020
:1027E0006846FFF789FC0126FFF7F0F9FFF75AFD6D
:1027F000FFF7B0F994F94400401C01D184F844A0DB
:1028000094F94500401C01D184F845A0FFF7DEF99A
:1028100005A9684600F0B2F830B12046FEF794FFF3
:1028200000F04AFA0020D5E7FFF794F9A06BE16BBE
:10283000884201D1012500E00025FFF7C7F995B1D5
:1028400004F110000599FFF76DFB2046FEF77CFFB1
:1028500000F032FA002894D1C8F80070BFF34F8F0F
:10286000BFF36F8F8DE72046FEF76EFF00F024FA6E
:1028700087E700002E2E5C4672656552544F535C0C
:1028800071756575652E63004572726F723A2573B6
:102890002C25640D0A00000004ED00E02DE9F0474E
:1028A000984615468946040005D140F29F322AA178
:1028B0002EA0FDF73FFDB9F1000F07D1206C28B124
:1028C0004FF4687224A129A0FDF734FDB8F1020F7E
:1028D00008D1E06B012805D040F2A1321EA123A04F
:1028E000FDF728FDFFF702FA5020EFF3118780F380
:1028F0001188BFF34F8FBFF36F8FA06BE16B8842DE
:1029000007D3B8F1020F04D0002087F31188BDE887
:10291000F08794F94560424649462046FEF7F9FBA8
:10292000701C04D0761C84F845600120EDE7A06C93
:10293000012620B141462046FEF716FD06E0606AFA
:102940000028F2D004F1240000F06AF90028ECD04D
:10295000002DEAD02E60E8E72E2E5C4672656552A7
:10296000544F535C71756575652E63004572726FC7
:10297000723A25732C25640D0A00000070B50D46CF
:10298000040005D140F6CB3214A119A0FDF7D2FC0A
:102990002DB940F6CC3211A115A0FDF7CBFCFFF705
:1029A000D9F8174AD06829684B1C0FD02368126ADF
:1029B000934202D0626882420AD96268801A8842D1
:1029C00006D2081A28602046FFF796FB002400E094
:1029D0000124FFF7FBF8204670BD00002E2E5C4658
:1029E00072656552544F535C7461736B732E630050
:1029F0004572726F723A25732C25640D0A0000002F
:102A0000400000202DE9FF5F8346DDE90E879946EF
:102A100016468A469000FEF7D3FE05001AD05C20C9
:102A2000FEF7CEFE040012D025630021CDE902415D
:102A3000CDE900874B46324651465846FEF7E4FB47
:102A40002046FEF799FA012004B0BDE8F09F284621
:102A5000FFF7EEF84FF0FF30F6E700000548416958
:102A600019B1006B18B10020704701207047022097
:102A700070470000400000200148C0687047000017
:102A8000400000202DE9F0412D4F0026386B40B169
:102A9000B869401CB861F86900B101263046BDE84C
:102AA000F081FD686D1CFD6011D1786B006828B164
:102AB00040F6D91223A128A0FDF73CFC786BB96B36
:102AC0007963B863386A401C3862FEF773FDB86AF0
:102AD000DFF89480854209D3786B006880B1786B09
:102AE000C068C468606885420DD2B8623868C06A40
:102AF00000EB800158F821000128CCD90126CAE753
:102B00004FF0FF30F1E7201DFEF7E0FFA06A18B19B
:102B100004F11800FEF7DAFFE06A01213A6981400A
:102B20001143396100EB800108EB8100211DFFF7A3
:102B300005F8E06A3968C96A8842CDD30126CBE737
:102B4000400000202E2E5C4672656552544F535C47
:102B50007461736B732E63004572726F723A2573E2
:102B60002C25640D0A000000BC01002070B5040093
:102B70004FF000063CD01F4D2868844205D040F637
:102B8000C7621DA121A0FDF7D5FB206D28B940F635
:102B9000C96219A11DA0FDF7CDFB206D401E206567
:102BA000E26CE16A914223D010BB201DFEF78EFF3C
:102BB0001A49012250B9E06A00EB800351F8233032
:102BC00023B92B6902FA00F083432B61E06CE062C9
:102BD000C0F12000A061E06A2B6982401A432A619B
:102BE00000EB800001EB8000211DFEF7A7FF01260E
:102BF000304670BD400000202E2E5C467265655246
:102C0000544F535C7461736B732E63004572726F23
:102C1000723A25732C25640D0A000000BC010020C7
:102C20002DE9F041C068C4682CB940F6613216A1A4
:102C30001AA0FDF77FFB04F118000746FEF746FFD8
:102C40001A4D286B012660B139461948FEF776FF08
:102C5000E06A2968C96A884213D90120EE61BDE89B
:102C6000F081201DFEF732FFE06A2A6906FA00F1C2
:102C7000114329610F4900EB800001EB8000211D09
:102C8000E4E70020EBE700002E2E5C4672656552FB
:102C9000544F535C7461736B732E63004572726F93
:102CA000723A25732C25640D0A00000040000020B4
:102CB00064040020BC0100202DE9F0472B4D0024C6
:102CC0002746286B28B94FF4FD6229A12DA0FDF7F6
:102CD00031FBFEF73FFF286B401E2863286BE8BBE3
:102CE000A8682C490126C8B3A1F52A798846D8F8E6
:102CF0000010E9B1D8F80C00C46804F11800FEF720
:102D0000E5FE201DFEF7E2FEE06A2A6906FA00F100
:102D10001143296100EB800109EB8100211DFEF7C1
:102D20000DFFE06A2968C96A8842E0D3EE61DEE7F8
:102D30000CB1FEF73FFCAC693CB1FFF7A3FE00B15C
:102D4000EE61641EF9D10020A861E86930B1124932
:102D5000012738070860BFF34F8F00E001E0BFF3A1
:102D60006F8FFEF733FF3846BDE8F0874000002044
:102D70002E2E5C4672656552544F535C7461736BC2
:102D8000732E63004572726F723A25732C25640DA1
:102D90000A0000006404002004ED00E02DE9F04783
:102DA0000746994616460D462C20DDF820A0FEF772
:102DB00007FD040014D0B8464F46D1462DB94FF454
:102DC000C67209A10EA0FDF7B5FAFEF73DF904F1B0
:102DD0001801C4F8008081E8E002201DFEF793FE90
:102DE0002046BDE8F08700002E2E5C4672656552D5
:102DF000544F535C74696D6572732E63000000005C
:102E00004572726F723A25732C25640D0A0000001A
:102E10001CB50024FEF718F90C48006868B10B498E
:102E20001F20091DCDE9000100234FF4827208A183
:102E30000948FFF7E7FD040005D140F2331207A16E
:102E40000CA0FDF777FA20461CBD00007C00002096
:102E5000546D722053766300211700082E2E5C46B5
:102E600072656552544F535C74696D6572732E635D
:102E7000000000004572726F723A25732C25640DB4
:102E80000A0000002DE9FF47DDF830A09946904682
:102E90000D4606004FF0000705D14FF4D37212A182
:102EA00017A0FDF747FA1A4C206880B1CDE9005809
:102EB0000296062D11DAFFF7D1FD02284FF000032C
:102EC00009D0002269462068FFF724FC074604B0B9
:102ED0003846BDE8F0875246F4E700234A46694683
:102EE000FFF7DCFCF2E700002E2E5C4672656552AF
:102EF000544F535C74696D6572732E63000000005B
:102F00004572726F723A25732C25640D0A00000019
:102F10007C0000204FF04070E1EE100A7047000086
:102F2000402F000800000020B4000000C401000889
:102F3000F42F0008B4000020745A0000E0010008DB
:102F40000000000000000000000000000000000081
:102F5000007A030A000000000000000001020304E0
:102F60000607080901000000000000000000000042
:102F7000000000000102030401020304060708091F
:102F80000000000000000000000000000000000041
:102F90000000000000000000000000000000000031
:102FA0000000000000000000000000000000000021
:102FB0000000000000000000000000000000000011
:102FC0000000000000000000000000000000000001
:102FD00000000000AAAAAAAA000000000000000049
:102FE00000000000000000000000000000000000E1
:042FF00000000000DD
:040000050800018965
:00000001FF
